:020000040800F2
:1000000000500020CDBA000855910008D58F000897
:10001000D38F0008D18F0008CF8F000800000000A8
:10002000000000000000000000000000CD8F00086C
:10003000CB8F000800000000C98F0008B98F0008AE
:1000400015BB000815BB000815BB000815BB000850
:1000500015BB000815BB0008858F000815BB0008FC
:1000600015BB000815BB0008818F000815BB0008F0
:1000700015BB000815BB000815BB000815BB000820
:1000800015BB000815BB000815BB000815BB000810
:100090007D01000815BB000815BB00087D8F000816
:1000A00015BB0008AD8F000815BB000815BB000884
:1000B000A18F0008958F0008898F000815BB0008E4
:1000C00015BB000815BB000815BB000815BB0008D0
:1000D00015BB00086D8F0008618F0008558F000860
:1000E000798F000815BB000815BB00080000000050
:1000F0000000000000000000000000000000000000
:0C01000000000000000000005FF808F1A3
:1001100010B5054C237833B9044B13B10448AFF341
:1001200000800123237010BD28070020000000007C
:10013000DCC200080C4B43B10C4810B50C49AFF3BE
:1001400000800C48036823B910BD0A48036833B91E
:100150007047094B002BF7D0BDE810401847064BFD
:10016000002BF5D0184700BF00000000DCC20008DB
:100170002C07002028070020000000002DE9F3478D
:10018000C44D2B68B3F844301C0400F1C7802A68C2
:10019000B2F84430580535D5B2F84430012723F47D
:1001A00080631B041B0CA2F8443000230826D5F8FA
:1001B0001C44194608222774D4F8200202F036FFA6
:1001C0000023C4F8106132468021D4F8200202F0E6
:1001D0002DFFD4F81832266284F8FC712BB1D4F8C4
:1001E000143221795B682046984795F8E833012B53
:1001F00008D0002380212A6885F82430A2F84C100A
:1002000085F8E8332A68B2F844305B0407D5B2F8C1
:10021000443023F480431B041B0CA2F84430B2F892
:1002200044309F0407D5B2F8443023F400531B0434
:100230001B0CA2F84430B2F84430DE0419D5B2F8F1
:10024000403023F004031B041B0CA2F840304FF491
:100250003D43A2F84030D5F81C3493F8FD1183F8E3
:10026000FC11B2F8443023F480531B041B0CA2F899
:100270004430B2F844301C0529D5B2F8443023F498
:1002800000631B041B0CA2F84430B2F840309BB250
:1002900043F00803A2F84030B2F840309BB243F07C
:1002A0000403A2F84030B2F84430D8040FD4D5F893
:1002B0001C3493F8FC1183F8FD11042183F8FC1120
:1002C000AB6923B174490B6943F006030B61B2F8C3
:1002D0004430990512D5B2F84430D5F81C0423F403
:1002E00000731B041B0CA2F8443090F8FC31032B64
:1002F00004D1D0F81432DB6903B198472A68B2F808
:100300004430DB0507D5B2F8443023F480731B0476
:100310001B0CA2F8443002B0BDE8F08700232F4642
:100320005E4EDFF88081ADF80230ADF80430286809
:10033000B0F844309BB21A04ADF802307FF527AF15
:10034000BDF8024014F00F0A40F0D082BDF8023030
:1003500013F0100F03889BB227D133400380B0F80D
:10036000503095F828209BB203EBC20300EB43000A
:10037000D0F80414EB6BC1F309016964D5F81C04CF
:100380001944E96302F08AFB95F82430002BCED0A3
:100390002A6C002ACBD195F82430296843F08003D9
:1003A000A1F84C3085F82420C1E7ADF80430BDF841
:1003B0000430190540F13D82B0F8503095F808221C
:1003C0009BB203EBC20300EB4303D3F80C34B5F844
:1003D0000C22C3F309033249C5F8243207F01AF995
:1003E0002A68D5F81C44138804F5027923F07003B9
:1003F0001B051B0D138095F8ECE384F808E295F8D3
:10040000EDC384F809C295F8EF1395F8EE3303EBCA
:1004100001239BB2A4F80A3295F8F12395F8F00372
:1004200000EB022080B2A4F80C0295F8F31395F8C3
:10043000F22302EB01220121C4F8F4110EF01F0196
:1004400092B20129A4F80E22C4F8F82100F020810C
:1004500005D3022900F031810EF08001E4E1BCF106
:10046000090F00F28480DFE81CF0EC000801820034
:10047000FC0082007A000A008200DD00A7001A0A50
:10048000013A062A73D8DFE802F00F2A3772725752
:10049000600000BF5408002000ED00E00F8FFFFF58
:1004A000400C00208FBFFFFFD4F810321B680DF105
:1004B0000601207C9847BDF80620002A3FF437AF9C
:1004C000B4F80E32002B3FF432AF9A4228BF1A46DE
:1004D0000146ADF80620204602F08FFA27E7227C7D
:1004E000D4F8143232B99B6A0DF106009847022302
:1004F0004370E0E7DB6AF7E7DBB2052B37D8DFE8CC
:1005000003F003070B0F1317D4F810325B68CEE724
:10051000D4F810329B68CAE7D4F81032DB68C6E71B
:10052000D4F810321B69C2E7D4F810325B69BEE719
:10053000D4F810329B69BAE7237CC3B9D4F81432DB
:100540000DF106005B6B9847B5E7237C7BB9D4F8C7
:1005500014320DF106001B6B98470723C8E730B92A
:100560002AB903F07F0994F8FC31032B01D120460E
:1005700048E0D4F8202284F8FE9192F8E833012B69
:100580000ED0012382F8249082F8E833B9F1000FED
:1005900003D180211368A3F84C10002382F8E833BC
:1005A000204602F01DFAB9F1000F03D0022384F8AF
:1005B000FC31BCE60123FAE7D9B2012985F8201401
:1005C000D5D894F8FC31022B0FD0032BCFD1E1B951
:1005D000022384F8FC31D4F8143261605B68204651
:1005E0009847204602F0FCF9A1E60029F9D0012144
:1005F0000323616084F8FC31204602F0C7FA022828
:100600002046EFD102F0A0F891E661680129E8D018
:10061000D4F81432C9B25B682046984795F8201484
:100620006160E9E7012AA2D194F8FC31022B03D0E2
:10063000032B9CD1211D4EE72146002341F8083FA2
:1006400049E794F8FC31023B012B90D80123E36089
:10065000D4F804320BB10323E360022204F10C014D
:1006600039E7012B7FF463AEC4F80432D4F81432B6
:1006700049469B6820469847B3E794F8FC21023A24
:10068000012A3FF674AF012B7FF451AE0023EBE754
:1006900094F8FC31032B7FF46AAFC0B208283FF610
:1006A00066AFD4F8143249469B6820469847B4F8A0
:1006B0000E32002B7FF43BAE93E70EF0600EBEF1DE
:1006C000200FC1B206D1D4F8143249469B682046A7
:1006D00098472CE6BCF1010F16D0C0F08180BCF128
:1006E000030F7FF424AE94F8FC21022A00F09980D5
:1006F000032A7FF43CAF002BB8D14A06B6D0D4F819
:10070000200202F015FBB1E794F8FC21022A00F068
:100710008880032A7FF42BAF002B7FF408AE11F002
:100720007F033FF45EAF4FF0000ED4F8202240B2BA
:100730000028B5BF02EB431102EB4111283101F54E
:100740000271C00F81F802E00B70487092F8E83334
:10075000012B8BD0012382F8E8334B78106891F895
:1007600000E023B330F82E305B060BD530F82E3086
:1007700023F0F0031B051B0D43F4004343F0C003BB
:1007800020F82E30097830F8213023F4E04323F0AC
:1007900040031B041B0C83F0300343F4004343F07D
:1007A000800320F82130002382F8E8335EE730F838
:1007B0002E305B040BD530F82E3023F0F0031B05F0
:1007C0001B0D43F4404343F0800320F82E3009789A
:1007D00030F821309BB203EA080383F44053DCE78E
:1007E00094F8FC31022B1CD0032B7FF4C0AE40B236
:1007F00001F07F03D4F82022002804EB0311B8BFD6
:10080000143102EB4313A8BF01F582710028B4BF75
:1008100093F82A3093F80A3203B101230B600222C5
:1008200059E648063FF483ADD4F8200202F080FA7E
:100830007DE5BDF804301A047FF579AD038823F017
:1008400070031B051B0D0380B0F8503095F808228B
:100850009BB203EBC20300EB4303D3F80C34C3F3A6
:100860000903C5F8243263B1B5F80C22D5F81C127F
:1008700006F0D0FED5F81C32D5F824221344C5F872
:100880001C32D5F81C220021D5F81C0402F04CF9CA
:100890002A68D5F81802B2F850103E2889B201F142
:1008A000060102F5806419D9C0F34F1EC30604BFC8
:1008B0000EF1FF331FFA83FE9D4B43EA8E239BB25A
:1008C00044F8113013889BB203EA080383F44053C1
:1008D00043F4004343F08003138028E5C0F34F0343
:1008E000C00744BF01339BB29B02E8E730F82A30CF
:1008F0009BB2ADF80430BDF804301C0445D530F887
:100900002A304FEA4A1923F070031B051B0D20F80B
:100910002A3005EB090191F81232002B40F0838058
:10092000B0F8503091F808229BB203EBC20300EB01
:100930004303D3F80C44C4F3090434B1B1F80C22D6
:100940002346D1F81C1206F065FE0AF111035B0183
:10095000E9184A68EB5822444A6005EB0901D1F8CE
:100960001C222244C1F81C2223B1D1F8180284426F
:1009700080F08F80A94499F80812D5F81C0405EB83
:100980004113D3F81C2202F0CFF8BDF80430190649
:100990007FF5CDAC28684FEA4A1930F82A3005EBCC
:1009A00009019BB2334020F82A3091F832300AF125
:1009B0000204002B73D1B0F8503091F828209BB27C
:1009C00003EBC20300EB4303D3F8043405EB4412FA
:1009D000C3F3090353601BB18A8DC96B06F02BFE6C
:1009E0002A68A944B2F8503099F828109BB203EB5A
:1009F000C10302EB4303D3F804346401C3F30903D6
:100A00002A195360D9F83C201A442B59C9F83C20C4
:100A1000002B40F08880D5F81C04002976D1E96BC2
:100A200002F03CF883E491F8083230F82320DB0030
:100A300012F4804FB0F8502092B2134400EB4303FD
:100A40001DD0D3F80444C4F3090434B12346B1F8EB
:100A50000E22D1F81C1206F0DDFD05EB090393F818
:100A600008122A6832F8213023F0F0031B051B0D11
:100A700043F4004343F0C00322F8213065E7D3F884
:100A80000C44C4F30904002CE7D02346B1F810222B
:100A9000DFE791F80812384602F0BAF975E791F8E5
:100AA000283030F82320DB0012F0400FB0F850203F
:100AB00092B2134400EB43031DD0D3F8043405EB8A
:100AC0004412C3F3090353601BB1CA8DC96B06F00E
:100AD000B2FD05EB090393F828102A6832F821309B
:100AE00023F0F0031B051B0D43F4404343F0800348
:100AF00022F8213074E7D3F80C3405EB4412C3F329
:100B000009035360002BE4D00A8EDFE7D0F81432DB
:100B10005B69002B3FF40BAC90F8FC21032A7FF4B7
:100B200006AC984703E4384602F052F9FFF7FFBBE2
:100B30000080FFFF2DE9F04F0024644E644D3378B0
:100B40008BB035F813208DF81B40002A3AD033447F
:100B500093F90530A34213DA342008F005F9803800
:100B6000C0B23F2805D9BF288EBF0F245038C0F32C
:100B7000C70405F06BFD04F16100C0B204F0AEFAE9
:100B8000337833445B79180718D5722004F0A6FA3D
:100B90003378F2185279D10604D54E4A12F8130070
:100BA00004F09CFA662004F099FA3378F21852792E
:100BB000D20603D515F8130004F090FA002233781A
:100BC00025F81320444A33780492D15C002900F0C0
:100BD00041840221414A4A2011614FF49472404FEE
:100BE0005A43F95C334400FB012ADB79DFF8F880D3
:100BF000012B0AEB080479D11AF808300B2B75D1B8
:100C000094F8363003F0FB02182A05D0392B03D0B4
:100C100003F0F702412A69D1E28FAE2A66D8B4F810
:100C200042207C2A62D8182B0DD10123E17860780C
:100C3000221D00930DF11B0307F0D8FC07230AF8CF
:100C40000830692553E01C2B01D0392B0AD1002331
:100C5000E1786078221D00930DF11B0307F0C6FCBC
:100C60000A23ECE703F0F703412BEAD1638F5D2BF6
:100C7000E7D900201B494D1C94F801E0C2B272452F
:100C800003D38DF81B200923D9E7531C734504EBCC
:100C9000020E9EF804E013D14FEA4E0E01F802E076
:100CA00094F803E0BEF1070F08D0234493F804E062
:100CB00002F805E08B5C03EBDE138B540130DBE7BD
:100CC00023441B79DB0903EB4E03F6E7F2250020F2
:100CD0009E1500209A150020A0150020000C014050
:100CE000780C0020022600206E14002000253378A6
:100CF0003344DB79012B17D1B5B994F83630183B62
:100D0000DBB2122B10D8AD4A22FA03F3DB070BD566
:100D1000E17860780DF11B030095221D07F066FC59
:100D2000082373250AF8083033783344DB79012B24
:100D300040F05481D5B940F606433AF808209A426B
:100D400014D1E37893B99E49221D04F10F0E12F8D5
:100D5000010B03449645DBB201F8010FF7D10B22DA
:100D60008DF81B20E27B9A4208BF7225337833440A
:100D7000DB79022B4DD1002D4BD11AF80830042B12
:100D800047D107238DF82530231D8DF82450079374
:100D9000E3786278C3F1070303EBC203442B38DD29
:100DA000DFF81CB203950022082107A800F00DFE11
:100DB000002381468BF80100B9F1000F40F06481F7
:100DC00007A8059300F0F0FD059B984221D107A8E4
:100DD00000F0EAFDE8B91BF8013F039A5A40794B4D
:100DE00003925B45DFD106234A46082107A88DF808
:100DF0001B3000F0EAFD83460346002B40F04A8199
:100E000007A800F0D1FD484503D1039B5B4508BF0F
:100E1000482533783344DB79012B1AF8083040F049
:100E20004381002D40F05D810D2B40F03E816649ED
:100E30006278EBB29A4205F1010500F23181E27865
:100E4000072A05D0E21811795F4A99540133DBB2C1
:100E50006F258DF81B3096F8009006EB0903DB79BF
:100E6000022B40F0FB8155BB6378042B40F0F981E5
:100E7000E378042B40F0F5811E223C2104F1380078
:100E800007F096FB0546002800F0EB814F4B1E2231
:100E900013F8191004F13C0007F08AFB01462046C4
:100EA00000F0B5FD0023194647488DF81B30DAB233
:100EB000052A40F0C88109B18DF81B2052253378EE
:100EC000F2185179C80740F1CC81414A11F0020172
:100ED000D05C00F0FE006FF38200D05440F0CC8272
:100EE000F8189DF81BE090F802C0F44525D14FF0AA
:100EF000320B0BFB037B81700390039989788E453D
:100F00000DD931480BEB010999F803C010F8019095
:100F1000CC4500F0A282D05C6FF34100D0548E45E6
:100F20000BD12C4907EB83000968806B091A25292E
:100F30009EBFD15C41F00101D1544FF0320B002033
:100F40000BFB037BF9188870039103998878864519
:100F500000F287821F49086807EB83018863542DDC
:100F600040F09182F118497949061FD49DF81B1071
:100F700004291BD914498878A0F14B0E5FFA8EFE24
:100F8000BEF11E0F06D8DFF850C02CFA0EFE1EF080
:100F9000010F07D17D38012804D9C97801F070010B
:100FA000702903D1D15C41F00101D154D15CC80753
:100FB00000F1788241F0040173E200BF11300400B7
:100FC0000126002007260020022600209A15002076
:100FD000971500206025002001030040022B7FF4BC
:100FE000C5AE002D7FF4C2AE07238DF82530231D3A
:100FF0008DF8245007931AF80830052B7FF4B6AE0D
:10100000E3786278C3F1070303EBC203902B7FF40C
:10101000ADAEAB4689234FF20F090122082107A884
:10102000039300F0D2FC039B8A4A43400BF8023042
:101030000BF1010B8144BBF10F0F00F124001FFAEB
:1010400089F9C3B2E9D10122082107A800F0BDFC4B
:101050008144C0437F4B0122D8731023082107A885
:101060008DF81B3000F0B1FC1FFA89F9A9EB0029BB
:101070000122082107A800F0A8FC1FFA89F980B214
:10108000814508BF532571E609F0010253404FEA3C
:10109000590991E603F0010289EA02095B08ACE60E
:1010A000E21812795A54C3E6DDB90B2B18D100228D
:1010B0006378684D211DD0B283420CD8E278072AAC
:1010C00005D0E2181179634AD1540133DBB28DF8AF
:1010D0001B300025BFE611F8010B50550132EAE73D
:1010E0000025032B7FF4B7AE2DBB0DF11B0246216B
:1010F000204600F089FBF0B19DF81B300621013B32
:10110000DBB21A4653488DF81B30002A51D110F833
:1011100003E08E4501D1032B53D84A1C724501D1FF
:10112000032B4DD81A460C21002A4CD18E4502D1F2
:10113000042B28BF542533783344DB79022B60D14C
:10114000002D7FF488AE0DF11B024521204600F0F2
:101150005BFB00283ED1072300258DF82530231D99
:101160008DF8245007936378042B40F07182E37864
:10117000012B40F06D82DFF8DC900122002D43D17D
:10118000072107A800F021FC60F07F00C0B205F83D
:1011900009000135042DF0D10122072107A800F034
:1011A00014FC0523400089F804008DF81B307425D9
:1011B00051E6013AD2B210F802E07144C9B2A4E794
:1011C000C1544625B7E7013AD2B210F802C06144D3
:1011D000C9B2A9E79DF81B30013BDBB2092B8DF8A2
:1011E0001B30B8D11C4BA3F1090113F8012955405C
:1011F0009942EDB2F9D1174B5B7AAB42ABD14525A1
:1012000029E6002DA7D026E6082107A800F0DDFB7F
:10121000BDE79DF81B50DFF83C90013DEDB229463B
:1012200048468DF81B5000F09FFB7B78ED1A19F8AB
:101230000530834240F023824B250CE66378E5704D
:10124000013B637007E6E218127901211A54013359
:101250002DE600BF022600200A260020002D7FF484
:101260002EAE337833445B795A0740F1908005F015
:10127000EDF9702003F032FF2022022118F80A0055
:1012800004F03FF9208F2022000180B2052104F0F4
:1012900038F9608F2022000180B2052104F031F975
:1012A000A08F2022000180B2052104F02AF9E08FEE
:1012B0002022000180B2052104F023F9B4F8400097
:1012C0002022000180B2052104F01BF9B4F842008D
:1012D0002022000180B2052104F013F9202204210C
:1012E00094F8360004F00DF920220321A07804F0D0
:1012F00008F920220321607804F003F9E078202225
:10130000C0F10700022180B204F0FBF8202003F0B6
:10131000E5FEB4F8440020220001052180B204F06B
:10132000F0F8202003F0DAFEB4F846002022000195
:10133000052180B204F0E5F8202003F0CFFEB4F8D8
:1013400048002022000180B2052104F0DAF82020B4
:1013500003F0C4FE337833445B799B0607D5342011
:1013600007F002FD03F0B7FE202003F0B7FEE3789C
:10137000072B1EBF6378013363700023627803F18B
:101380000109DBB29A4200F2EF8003F0F2FE002185
:101390000AF808103378BE4A049822F81310049A09
:1013A00084F83610D25C1E44013AC254FA5C013211
:1013B000D2B2042A08BFF9544FF4003118BFFA54CE
:1013C000B44A1161F379022B44D1542D42D15F22EA
:1013D000B14B93F800A093F801909D78DE7893F8D4
:1013E0000480AE4B1A70002387F83C3097F83D30EC
:1013F00013B997F83E306BB3A94C2378534502D10B
:1014000063784B4505D003F08FFD84F800A084F885
:10141000019097F83F30FF2B1CD0A570E67084F840
:101420000480002D00F0B480002B40F0B18097F8CC
:101430003D30434500F09E80B8F1640F00F09A8083
:10144000A5F15303012B02D97D2D40F09680FF2397
:1014500087F83F300BB0BDE8F08F03980131817001
:101460004BE58D490BEB000911F800C003990130E1
:1014700089F803C0887068E5D15C01F0FD0141F096
:101480000101D1546BE5692D02D0732D7FF48EAD2F
:10149000D15CC8075FD5880754BF41F006016FF3E0
:1014A0008201D1543378D35C58077FF5DAAE05F06A
:1014B000CDF8284603F012FE1AF808300A2B02D1A4
:1014C000682003F00BFE1AF808300D2B02D16D20B6
:1014D00003F004FE7B7823B19DF81B30013B8DF8AF
:1014E0001B300023DFF8B0B19DF81B2003F1010988
:1014F000DBB2934232D37B7833B1674B0121985CE6
:1015000000F00F0004F01AFC337833445B7999063D
:1015100004D5342007F028FC03F0DDFD1AF808306C
:10152000082B15D13B2003F0D9FDB4F8440020224C
:101530000001052180B203F0E4FF3A2003F0CEFD64
:10154000B4F846002022000180B2052103F0D9FF43
:1015500003F00FFE85E66FF34101A2E71BF80300DD
:1015600003F0B9FD4B46BFE72344187903F0B3FD00
:101570004B4603E7542D3FF46DAF06F0F003602BAC
:101580007FF468AF46F07006E67004F0E7F861E7B4
:1015900006F0F6FF20B997F83F30002B3FF45AAF22
:1015A00097F840304BBB97F83F203E498A5C532A5E
:1015B00025D1542D23D197F83F20023287F83F20C0
:1015C0005BB1394A13780233137006F0D9FF58B96A
:1015D00097F83F30023387F83F3097F83F30314A71
:1015E0001A445578FF2D0FD1A378642B87F840302B
:1015F000CBD197F841302371C7E71A46D7E7954218
:10160000DED003F091FC25E77722E27097F83D20C9
:10161000023322710022DBB20E2BA57087F83F3017
:1016200087F840200CD11E4803F05EFC30B10278F0
:101630001E4B9B1A834207D80023037003F074FCEF
:10164000002D3FF407AFA0E7815C00F8011BF1E734
:10165000174B317894F83E2013F8111004F13C0038
:1016600006F0A6FF0146204600F0D1F90DF11B025D
:101670004B21204600F0C8F800287FF4CAADE3787B
:101680000025072B3FF4DAAD0133E370FFF7E3BB2E
:101690006C140020000C0140022600206825002068
:1016A000FB250020F4C2000801260020680D002060
:1016B0009A15002070B5294C06460121207806F0C5
:1016C00022FB0021207806F019FB01222078114628
:1016D00005F0F2FC1E2003F085FF00220121207896
:1016E00005F0EAFC1E2003F07DFF01222078114660
:1016F00005F0E2FC2D2003F075FF302007F0ACFA76
:10170000642003F06FFF731E022B26D8144C0234A2
:1017100014F8030C402813D9142500247543114EE6
:101720006319334413F8140C40280ED9332007F002
:1017300093FA03F031FCBDE87040012003F0E0BFF4
:1017400014F8021C07F0F6FAE1E713F8131C023450
:1017500007F0F0FA142CE3D1E8E770BDF225002081
:1017600003C3000830C3000838B5254C0121207898
:1017700006F0C9FA2078002106F0C0FA012220788C
:10178000114605F099FC1E2003F02CFF00220121D8
:10179000207805F091FC1E2003F024FF0122207820
:1017A000114605F089FC2D2003F01CFF302007F0C6
:1017B00053FA642003F016FF0024124D605D4028A8
:1017C00011D9332007F048FA042003F099FF0024D0
:1017D0000134B4F5807F0ED0342007F03DFA0A20A2
:1017E00003F000FFF4E72B195978023407F0A2FA4E
:1017F0003C2CE3D1E5E7BDE8384003F0CDBB00BFAA
:10180000F22500206CC300082DE9F74F00244FF0AB
:101810000709C3788DE805004278514DC3EBC20338
:1018200007335FFA83FB27462246CC46A046234671
:10183000AE464C4E2C7034705FFA84FA0AF1010502
:10184000D345EDB20CD80FB18EF80020AB4546D28F
:10185000452975D1B9F1FF3F72D10133DBB273E095
:10186000009800EB08052D7945FA0CF505F0010507
:10187000BCF1000F12D00CF1FF3C4FFA8CFC4B294D
:101880001CD1B9F1030F65D17AB9002D55D10FB133
:101890008EF80020104603B0BDE8F08F08F1010873
:1018A0005FFA88F84FF0070CE9E70127002D42D1D5
:1018B0002A4609F1FF394FFA89F924E0B9F1FF3FCF
:1018C00023D1462914D14FF0000A16F80390B9F13C
:1018D000000F06D155450FD00FB18EF80020002221
:1018E000D8E709F001008AEA000A4FEA5909EEE751
:1018F000452901D1002DEFD04FF000004FF007092E
:101900000133DBB2F054013496E7002DD1D04629E3
:1019100007D10120F55C00FA09FA45EA0A05F554F9
:10192000C7E74529C5D10120C9F1070500FA05F52A
:1019300016F803A0F1E70022F5E701273A46E2E7AF
:101940009EF80020002A88D1019A13701A1C18BF33
:1019500001229FE7B9F1FF3FCCD0002DE3D1A8E7EA
:10196000790C002002260020F0B500250D4B2A46F8
:101970001F78052329B91344DBB242EA0313D8B216
:10198000F0BD0139C9B2445C260933447240DBB270
:1019900007B125B104F00F0423446240DBB20135E6
:1019A000E8E700BF790C0020034610B5417A027ABF
:1019B00000684C1E805C5C72084100F0010019B99F
:1019C00001321A7207225A7210BD2DE9F047002425
:1019D00080460E4691462546012701F1FF3AB44262
:1019E00002D12846BDE8F0874046FFF7DDFF48B149
:1019F000B9F1000F08D0AAEB040007FA00F040B2DA
:101A00000543EDB20134EAE707FA04F0F7E743785B
:101A100010B4312B02D910BC02F04CB831B1012204
:101A2000C478C118A2400C7922430A71C27842B12D
:101A3000013AC27090F8363010BC013380F836306D
:101A4000704707210133DBB243700344C1701A7140
:101A5000F0E72DE9F041C94C431E054626780D2BD1
:101A600000F2CD81DFE813F00E0033008000AA0100
:101A7000AA01830086008A008C008E00E9005501CF
:101A80009E01A701BE4B1D784DB926447379D3B191
:101A9000022007F0EBF923784BB907F0F3F823782D
:101AA000002B40F0B8816579003518BF01252178F9
:101AB0002A460C44B348657005F05EFBBDE8F04172
:101AC000032003F01DBE362007F0C6F8E7E73046D6
:101AD000012106F018F90021207806F00FF9012203
:101AE0002078114605F0E8FA1E2003F07BFD002265
:101AF0000121207805F0E0FA1E2003F073FD012299
:101B00002078114605F0D8FA2D2003F06BFD302027
:101B100007F0A2F8642003F065FD00269A4FBB1978
:101B2000B85D5978023607F005F9322EF7D1974B98
:101B30001B7873B9332007F08FF8042003F0E0FD21
:101B4000342007F089F8352007F00EF90D28F7D179
:101B5000ADE700268E4FBB19B85D5978023607F005
:101B6000E9F8162EF7D1E5E7FFF7FEFD9FE704F051
:101B700021FD9CE70120FFF79DFD98E70220FAE791
:101B80000320F8E73046002106F0BDF80021207858
:101B900006F0B4F801222078114605F08DFA1E20D7
:101BA00003F020FD00220121207805F085FA1E2097
:101BB00003F018FD01222078114605F07DFA2D2052
:101BC00003F010FD302007F047F8642003F00AFD11
:101BD00000220121207805F06FFA402007F0A8F8D4
:101BE00000266C4FB85D013607F0A2F8292EF9D116
:101BF00001222078114605F05FFA002201212078A9
:101C000005F05AFA7E2007F093F82B263046771C11
:101C100003F09CF807F08CF8332F3E46F6D10122F2
:101C20002078114605F048FA332007F015F8012016
:101C300003F066FD03F0B0F939E73046002106F005
:101C400062F80021207806F059F801222078114628
:101C500005F032FA1E2003F0C5FC00220121207895
:101C600005F02AFA1E2003F0BDFC0122207811465F
:101C700005F022FA2D2003F0B5FC302006F0ECFF31
:101C8000642003F0AFFC444F00220121207805F0CE
:101C900013FA402007F04CF80026B846B85D01362C
:101CA00007F046F80D2EF9D13C4E307807F040F899
:101CB000707807F03DF8B07807F03AF8102618F879
:101CC0000600013607F034F8292EF8D101222078D9
:101CD000114605F0F1F900220121207805F0ECF918
:101CE0007E2007F025F82B263046771C03F02EF8CF
:101CF00007F01EF8332F3E46F6D101222078114618
:101D000005F0DAF9384606F0A7FF012003F0F8FCE9
:101D1000CDE63046012105F0F6FF0021207805F0E0
:101D2000EDFF01222078114605F0C6F91E2003F0D0
:101D300059FC00220121207805F0BEF91E2003F095
:101D400051FC01222078114605F0B6F92D2003F050
:101D500049FC302006F080FF642003F043FC00269D
:101D60000F4FF05D40283FF65FAFBB195978023640
:101D700006F0E0FF3C2EF4D156E700BFF22500202C
:101D80001012002082CB0008A8C30008680D0020B4
:101D9000DAC30008F0C3000819C40008640000207A
:101DA00042C40008372007F061F806F06BFF0122FB
:101DB0001A4B1A707BE602F031FF78E6002323709D
:101DC0002378012B08D9042D26704FF0020111D180
:101DD000012004F0EFFA6AE69E4208D023445B78C3
:101DE00003F0FE03042B02D10020FFF732FE23781C
:101DF0000133E4E7084604F0DDFA052557E600253F
:101E0000362006F029FF054B054A1D702378D5546E
:101E1000044B1D704BE6002549E600BF98150020D5
:101E2000BE1900201012002010B543780E4C83B963
:101E300004F00CFC21780C44607903F04CF90B4B56
:101E400020220521188803F05CFBBDE8104003F058
:101E500090B90122217810440531214402F0F0FAB2
:101E6000BDE810400120F4E5F2250020F025002017
:101E7000002307B54278ADF80630722A24D1837862
:101E800023B10DF10601023002F0C9FABDF80600D7
:101E9000431E022B07D904F0D9FB0D4803F0CCF9FF
:101EA00003B05DF804FB0630C0B2FFF7D2FD04F0CA
:101EB000CDFB084B1A78134458780638C0B203F0AB
:101EC0000AF903F056F9EBE7782AF0D11846ECE767
:101ED00099CB0008F225002008B5064B1A78134468
:101EE000D8785B78834203D0FFF7B3FD012008BDAB
:101EF000002008BDF2250020044B1A7813445A78BC
:101F00009042DA7000D0A4E5704700BFF2250020AF
:101F1000002914BF642200222DE9F0410E460A2157
:101F2000047807460134E4B2E30093FBF1F35F4920
:101F300013440A88934206D904F088FBBDE8F041B7
:101F40005B4803F079B9D31A03200B80FFF7D4FF65
:101F5000352006F009FF0D281BD004F077FB5A202E
:101F600003F0BCF8452003F0B9F8522003F0B6F8AE
:101F7000522003F0B3F8312003F0B0F8352006F01A
:101F8000F3FE03F0A8F803F0F4F8BDE8F041FFF722
:101F9000EBBB484D6B6823BB06F08EFE352006F088
:101FA000E3FE132820D004F051FB5A2003F096F8EA
:101FB000452003F093F8522003F090F8522003F0EC
:101FC0008DF83220D8E7012003F09AFBD8F80020E2
:101FD0006B689A42F7D0D8F8002001339342F2D0D0
:101FE000DAE7DFF8D880F1E7002E52D1324E002236
:101FF0000121307805F060F87F2006F099FEB846A0
:10200000A8EB0703DBB29C424AD801223078114684
:1020100005F052F80024352006F0A6FE06463520CD
:1020200006F0A2FE864204D10D2E06D0012003F058
:1020300067FB0134E4B2FA2CEDD1352006F094FEB2
:102040000D281FD004F002FB5A2003F047F845206A
:1020500003F044F8522003F041F8522003F03EF818
:10206000332003F03BF8352006F07EFE03F033F812
:10207000304603F030F8204603F02DF803F079F8ED
:10208000FFF772FBFFF728FF0C4B1B686B60BDE886
:10209000F0810A26642003F033FB013EFAD1A5E764
:1020A00018F8010B06F044FEAAE700BFF025002057
:1020B000B5CB0008680D0020F22500206025002027
:1020C00010B5437888B0722B044603D10320FFF784
:1020D000C0FC13E0732B01D0662B1AD11D22694678
:1020E000A01C02F0ADF99DF80030C0B20138984252
:1020F00006D004F0ABFA0E4803F09EF808B010BD0D
:1021000061786846A1F1730359425941FFF700FF16
:10211000F4E7612B05D103220649A01C02F090F9D7
:10212000ECE7772B02D103220349F6E70020CEE744
:10213000BCCB0008700D0020730D00201FB50B23D1
:102140008DF80430437800248DF8053002238DF893
:102150000730C3798DF806408DF80830037A8DF882
:102160000E408DF80930437A8DF80F408DF80A3013
:1021700003798DF80B3043798DF80C308379142076
:102180008DF80D3003F0BCFA01A82146FFF7C0FE20
:1021900004F05CFA5A2002F0A1FF9DF80420E3B29B
:1021A0009A4204F101040CDA094B1A7813445B7962
:1021B0009B0602D5002002F08EFF02F0DAFF04B089
:1021C00010BD04AA134413F80C0C02F084FFE4E7DA
:1021D000F2250020082343F6655210B581EA102449
:1021E00014F0800F4FEA400003F1FF3318BF504056
:1021F000490013F0FF0380B2C9B2EFD110BDF0B5B2
:102200001E4D47789ABB8378BC0004F03C0403F071
:102210003F0644EA93142E442C4496F87C6194F8CB
:102220007C410078030103F0300343EA17132B4489
:1022300005EB900593F87C3195F87C51FF2D18BF84
:10224000FF2B0CBF01200020FF2E08BF40F0010033
:1022500080B9A4F1FF077842784158B943EA0513E1
:102260000B704AB946EA04164E701046F0BD0024C1
:102270002646D6E70122F8E70246F6E702C3000841
:10228000F0B5124B02BB447804F00F051D4403EB7C
:10229000141495F8BC5194F8BC41077807F00F006E
:1022A000184490F8BC6103EB171393F8BC31300964
:1022B00040EA8300A30843EA061308704B7012B982
:1022C00045EA84158D70F0BD1424E6E702C30008CA
:1022D00070B5174A0478407802EB141304F00F0429
:1022E000144493F8CC5194F8CC3102EB1014FF2B2A
:1022F00018BFFF2D00F00F00024492F8CC610CBF14
:102300000122002294F8CC41FF2C08BF42F00102C8
:1023100062B9A6F1FF025042504138B91B0143EAAD
:102320008513334343EA84030B7070BD012070BDF5
:1023300002C30008192891BF0223A0F11A031B1140
:10234000033388BFDBB200EB43000130704738B580
:10235000352006F009FD01280546F9D13B2006F09D
:102360007BFC3A2006F078FC00210F4C0F4B032039
:10237000A3610F4B21741B786182A1822177A17721
:10238000E377657706F0D6FC0820022106F0D2FC40
:10239000342006F061FC352006F0E6FC0D28FAD169
:1023A000012084F8200038BD680D0020A40E002014
:1023B000101200200A2303800048704768000020A4
:1023C000CF2303800048704774000020CF23038090
:1023D0000048704774000020CF23038000487047F6
:1023E0007400002038B55C24B0F80C32D0F8182204
:1023F000C3F3470304FB0324D0F81C225AB194F81A
:102400004000FF2807D09568214694F84120A8474E
:10241000FF2384F84030002038BD02234A1E70B5E7
:1024200092FBF3F25C24D0F81862D0F8205204FB3F
:10243000026401F07F0105EB4111B1F82412E1645F
:102440004EB1D0F81C32D2B2DB6804F14C01606CA2
:102450009847002070BD184670BDD0F81832022091
:102460003BB1013991FBF0F05C2101FB0031002010
:102470004865704738B5054681242146D5F82002C5
:1024800000F0EAFC84F08001D5F8200200F0E4FCC2
:10249000611C0234C9B2D5F82002E4B200F0DCFCC1
:1024A000872CEAD1D5F8183233B1D5F81C325B68E5
:1024B00098470023C5F81832002038BDF8B5037CD2
:1024C00004468125002B3CD1294602234022D4F822
:1024D000200200F0ABFD85F080010235022340228E
:1024E000D4F82002EDB200F0A1FD872DECD18225B9
:1024F0002946023503230822D4F82002EDB200F069
:1025000095FD882DF4D10025184B0126C4F818320A
:10251000D4F81C322F461B689847D4F8182231464D
:102520002A44576540239765D4F82002526C5C35E5
:1025300000F06EFC0236B5F58A7FF6B2EDD10020D0
:10254000F8BD294602234022D4F8200200F06EFD97
:1025500085F08001023502234022D4F82002EDB23A
:1025600000F064FD872DECD1C1E700BF8C0D002089
:1025700070B50F4C0646237E1546012B15D001235E
:10258000237606F06FFA68B9AAB20A4DE0612B69AA
:1025900043F001032B61328006F064FA2B6923F0CB
:1025A00001032B610023237670BD022070BD00BFA4
:1025B000382600200020024010B590F83830012B5A
:1025C0004FF0020318D080F8393003680C685A685D
:1025D000496822F070025A605A6822435A609A6829
:1025E00022F080029A609A680A439A60012380F878
:1025F0003930002380F83830184610BD1FB5044626
:10260000002800F0948090F8393003F0FF02BBB945
:1026100080F838200368474A93424BD1464B01214A
:102620009A69192042F400629A619B6903F400637D
:102630000393039B03F0E6F84FF000723F4B1A60E0
:1026400002233C4984F8393023688B421A680AD047
:10265000B3F1804F07D0A1F594318B4203D001F53F
:1026600080618B4215D1A16822F070020A43314982
:102670008B420AD0B3F1804F07D0A1F594318B4241
:1026800003D001F580618B4203D1216922F44072AD
:102690000A431A60E2680020DA6262689A62254A98
:1026A000934204BF62691A6301225A6184F8392097
:1026B00004B010BDB3F1804F11D103F50433DA69D2
:1026C000012142F00102DA61DB691C2003F0010301
:1026D0000293029B03F096F84FF08052AEE7184A3F
:1026E000934210D1144B0121DA691D2042F00202FD
:1026F000DA61DB6903F002030193019B03F082F8C6
:102700004FF000529AE70F4A934299D10A4B0121A8
:10271000DA691E2042F00402DA61DB6903F0040387
:102720000093009B03F06EF84FF0804286E7012093
:10273000BEE700BF002C01400010024000E100E0B5
:10274000000400400008004010B504468021D0F885
:10275000200200F0EDFAD4F820020021BDE810407C
:1027600000F0E6BA38B50A4DD5F818326BB15C22E4
:1027700002FB0032410001314023526CC9B2D5F84E
:10278000200200F045FB002038BD022038BD00BF0C
:10279000341B00202DE9F0477A4C074694F860037B
:1027A000FFF7C8FD431E9BB2B3F5917F054680F04D
:1027B000E68094F883343846022B4FF00101DFF8AD
:1027C000D0810CBF94F88464002603F0F3FD012F40
:1027D00008F512770ED0A946C246B9F1010F34D1DF
:1027E0004A4651463846FFF74BFD05EB45056D104F
:1027F00001351CE09623414684F8183100236248D5
:10280000FA5C01334FEA121E02F00F02825C10F8EC
:102810000EE081F801E001F8022F9AB29542EFD85C
:10282000552204EB4503013583F819216D003D2045
:10283000A4F8885406F010FA10F070051CD0362069
:1028400006F00AFA0220BDE8F087B9F1020F4FF056
:1028500000025146384605D1FFF712FD55238AF88C
:102860000330C2E7A9F10209FFF70AFD0AF1030AE2
:1028700002371FFA89F9B0E73B2006F0EDF9B4F80A
:102880008814C4F88C84FF2984F891544FF0060012
:10289000C9B236D806F04EFA2946082006F04AFAA0
:1028A000012384F89034B4F88834D4F88C04402B95
:1028B00028BF40231D46D9B203F028FED4F88C343B
:1028C0002B44C4F88C34B4F888345B1B9BB2A4F856
:1028D000883413B9012384F89134352006F0BCF90B
:1028E0002A4F94F89114A9B1352006F03DFA012839
:1028F000FAD11EB10221304603F05CFD0020BDE894
:10290000F08706F017FA0221082006F013FA84F87F
:102910009054C8E7387804F0B9FB38B3B4F8883479
:10292000D4F88C04202B28BF20231D46D9B203F0F5
:10293000EDFDD4F88C342B44C4F88C34B4F88834CE
:102940005B1B9BB2A4F888346BB9012384F89134E3
:1029500094F890140029C4D1082006F0EBF9012363
:1029600084F89034BDE7BF2BBBD8F1E73D2006F0DB
:1029700073F900F070007028B3D13B2060E70120AC
:10298000BDE8F0878C0D0020DEC40008F225002091
:10299000A40E002070B5A0B10246131A12F8014B24
:1029A000DBB2002CF9D10D4A5B0002330B8082F8B8
:1029B0009434032382F895340223013810F8015F20
:1029C00005B970BD591CC9B2D6181144023386F836
:1029D0009454DBB281F89444F0E700BF8C0D0020E2
:1029E00008B50423C0F8F4310023D0F820021A46B9
:1029F000194600F0EDF9002008BD08B51346022283
:102A00008361C0F8F421C3610A46D0F82002002196
:102A100000F0DEF9002008BDF8B50F78044617F085
:102A200060030E4632D0202B29D18B88CA88C3F38D
:102A3000470348782AB35C25D4F8181205FB031520
:102A400039060AD5D4F81C128F682946B84729469A
:102A50002046F288FFF7D1FF11E0032385F84120DB
:102A600085F840000021C4F8F431C4F80821C4F806
:102A70000C211346D4F820022A4600F0C9F90020A0
:102A8000F8BDD4F81C42A468A047F8E74B780A2B9D
:102A9000F5D101220049DDE72014002038B5D0F837
:102AA000F4310446022B0A4612D1C069236A9842C7
:102AB00016D9C31AE36100219BB2D4F8200200F0BA
:102AC00087F90023D4F820021A46194600F0A0F92D
:102AD00094F80032012B04BF002384F8003238BD83
:102AE000A269B2FBF3F503FB15257DB993420DD81E
:102AF000D4F8F8319A4209D22B462A462946D4F80E
:102B0000200200F065F9C4F8F851DAE7D4F814327D
:102B1000DB682BB194F8FC21032A01D120469847A9
:102B20000523C4F8F431CCE738B5044619BBD0F816
:102B3000F431032B10D1D0F80C51D0F810319D4254
:102B40000CD9ED1AAB4228BF2B46C0F80C519BB2F2
:102B5000D0F8200200F05CF9002038BDD0F8143223
:102B60001B6923B190F8FC21032A00D19847204625
:102B7000FFF736FFF0E7D0F814329B69002BEBD05B
:102B800090F8FC21032AE7D19847E5E708B5D0F88B
:102B900014320BB9022008BD1B6898470028F9D1F0
:102BA00008BD00BF042301480B807047440100208A
:102BB000122301480B807047480100200020704715
:102BC00008B50248FFF7E6FE014808BDC5CB00087E
:102BD0002012002008B50248FFF7DCFE014808BDBE
:102BE000D3CB00082012002008B50248FFF7D2FE20
:102BF000014808BDDECB00082012002008B50248BD
:102C0000FFF7C8FE014808BDE4CB000820120020F1
:102C1000012A2DE9F04104460E4615461AD00CD380
:102C2000022A27D0184B2846D3F818225C2303FB2E
:102C300005235C64FFF796FD19E00746DFF8548032
:102C400032683B1B9A42EDD917F8011B404601F050
:102C50003BFEF5E70A88EFF31185102383F3128812
:102C600001460A4804F08CFFEDB285F3118800207C
:102C7000BDE8F0810A88EFF31185102383F31288F1
:102C800001460348EEE700BF341B0020DC2400208F
:102C900020250020861E0020202808B50CD1022BFC
:102CA0000AD80A6842B1012006498342C85405D1B6
:102CB0000548426004F0A4FD002008BD022BFBD1B2
:102CC0000248F6E722140020DC2400202025002002
:102CD000084B4FF460525B6892FAA2F2B2FA82F2A9
:102CE00003F46053D340044AD35C044A1068D840CC
:102CF000704700BF00100240EEC4000864010020CD
:102D0000084B4FF4E0625B6892FAA2F2B2FA82F2E8
:102D100003F4E063D340044AD35C044A1068D8400B
:102D2000704700BF00100240EEC40008640100209C
:102D300001224BB210B5002B01F07F04B5BF00EBB0
:102D4000441100EB4111283101F50271DB0F8A704B
:102D50000C704B7090F8E833934237D080F8E8233A
:102D60000C780268A4B9138823F4804323F040034D
:102D70001B041B0C83F4805383F0100343F40043C3
:102D800043F080031380002380F8E833184610BD19
:102D90004B7883B132F8243023F4E04323F040032E
:102DA0001B041B0C83F0100343F4004343F0800327
:102DB00022F82430E7E732F8243023F4804323F06C
:102DC00070031B041B0C83F48053EDE7022010BD3D
:102DD00070B5044601F07F06700125182B640023AE
:102DE0006B640123EA6385F8293085F8286094F83C
:102DF000E8239A420AD02830211884F8E833206862
:102E000004F02AFC002084F8E80370BD022070BDA5
:102E100070B5044601F07F0670012518C5F8203210
:102E20000023C5F81C22C5F8243285F8093285F83C
:102E3000086294F8E833012B0CD0012300F50270EE
:102E4000211884F8E833206804F006FC002084F898
:102E5000E80370BD022070BD4BB230B5002B01F00D
:102E60007F02B5BF00EB421100EB4111283101F5A3
:102E70000271DB0F0A704B7090F8E833012B00F001
:102E8000D380012380F8E8338D7A03684C780A7880
:102E9000002D3CD11CB333F8224064060BD533F827
:102EA000224024F0F0042405240D44F4004444F0AE
:102EB000C00423F82240097833F8212022F4E042AC
:102EC00022F040021204120C42F4004242F080024E
:102ED00023F82120002380F8E833184630BD33F86A
:102EE000224065040BD533F8224024F0F004240579
:102EF000240D44F4404444F0800423F8224009782F
:102F000033F8212022F4804222F07002DAE7002C0C
:102F100046D133F8224064040BD533F8224024F024
:102F2000F0042405240D44F4404444F0800423F8C4
:102F300022400C7833F8242055060BD533F8242092
:102F400022F0F0021205120D42F4004242F0C002DB
:102F500023F824200C7833F8242022F0F002120504
:102F6000120D42F4004242F0C00223F8242048F23D
:102F700080040D7833F8252022F4804222F070027C
:102F80001204120C224323F82520097833F821205B
:102F900022F4E04222F040021204120C224397E78E
:102FA00033F8224064040BD533F8224024F0F004B7
:102FB0002405240D44F4404444F0800423F82240C6
:102FC0000C7833F8242052060BD533F8242022F055
:102FD000F0021205120D42F4004242F0C00223F842
:102FE00024200C7833F8242022F0F0021205120D70
:102FF00042F4404242F0800223F8242048F2800448
:103000000D7833F8252022F4E04222F04002120429
:10301000120C224323F82520097833F8212022F4CA
:10302000804222F07002B7E7022030BDF0B54CB20A
:10303000002C01F07F05B5BF00EB451100EB4111FD
:10304000283101F50271E40F0D704C700A61CB70EC
:1030500090F8E833012B00F07581012380F8E83304
:10306000CA7803680C78032A0FD8DFE802F00267F9
:10307000535C33F8242022F4EC4222F07002120454
:10308000120C42F4007223F8242040F60F720D78DF
:1030900033F8254045F40046144046F0800634439A
:1030A00023F825408C7A0F78002C40F09B804D78D7
:1030B0008C88002D4DD0B3F850506408ADB205EBAC
:1030C000C70503EB45056400C5F800440D7833F8E7
:1030D0002540640608D533F82540224042F40042DA
:1030E00042F0C00223F82520097833F8212022F489
:1030F000E04222F040021204120C82F0200242F45C
:10310000004242F0800223F82120002380F8E833B7
:103110001846F0BD33F8242022F4EC4222F070026D
:103120001204120CAFE733F8242022F4EC4222F010
:1031300070021204120C42F4C062A4E733F8242097
:1031400022F4EC4222F070021204120C42F480626B
:1031500099E7B3F85020640892B202EBC702043238
:10316000640003F5806646F81240B3F850400A78D0
:103170000D69A4B204EBC2043E2D04F1060429D962
:10318000C5F34F17EA0604BF07F1FF3297B26E4A44
:1031900042EA872292B246F814200C7833F82420B1
:1031A00057040BD533F8242022F0F0021205120D3B
:1031B00042F4404242F0800223F82420097833F898
:1031C000212022F4804222F070021204120C82F4B8
:1031D000405294E7C5F34F02ED0744BF013292B26B
:1031E0009202D7E733F8274003F5806624F4F87499
:1031F0002405240D44F4014444F0800423F82740BE
:10320000B3F850400D78A4B204EBC504CD886D0826
:103210006D0046F81450B3F850400D78A4B204EB9A
:10322000C5040D8904346D086D0046F814504C78BF
:103230000D78002C45D133F82540660408D533F8C5
:103240002540224042F4404242F0800223F82520EB
:103250000C7833F8242055060BD533F8242022F0BF
:10326000F0021205120D42F4004242F0C00223F8AF
:1032700024200C7833F8242022F0F0021205120DDD
:1032800042F4004242F0C00223F8242048F28004B5
:103290000D7833F8252022F4804222F070021204C7
:1032A000120C82F44052224323F82520097833F887
:1032B000212022F4E04222F040021204120C2243A8
:1032C00021E733F82540640408D533F8254022402F
:1032D00042F4404242F0800223F825200C7833F873
:1032E000242052060BD533F8242022F0F0021205D8
:1032F000120D42F4004242F0C00223F824200C7860
:1033000033F8242022F0F0021205120D42F440425C
:1033100042F0800223F8242048F280040D7833F82C
:10332000252022F4E04222F040021204120C224333
:1033300023F82520097833F8212022F4804222F056
:103340007002BAE70220F0BD0080FFFF2DE9F74FC1
:1033500000221646654BDFF8A4E1DFF8A4C14FF068
:1033600001080C6808FA06F808EA0404A0457FD1B1
:103370004D68122D00F0AF8000F28880022D00F021
:10338000A7807CD8002D00F08E80012D00F09E805B
:103390004FF00F09FF2C93BF824606F18045083D90
:1033A000D0F800B092BFB500D0F804B0AD0009FA73
:1033B00005F82BEA080802FA05F588BF00F1040AAF
:1033C00048EA0505CAF80050D1F804A01AF0805F59
:1033D0004ED0474D464FAD6926F0030845F0010534
:1033E000BD61BD6908F1804805F00105019508F54A
:1033F000803806F0030B019D4FEA8B0BD8F808507C
:1034000009FA0BF925EA09093A4DA84268D005F5F1
:103410008065A84266D005F58065A84264D005F5B0
:103420008065A8420CBF0325042505FA0BF545EA83
:103430000905C8F808501D681AF4803F14BF2543D9
:10344000A5431D605D681AF4003F14BF2543A543E2
:103450005D609D681AF4801F14BF2543A5439D60DD
:10346000DD681AF4001F14BF2C4325EA0404DC6055
:103470000136102E7FF473AF03B0BDE8F08F032D3B
:1034800022D0112D84D1CA68043281E71A4FBD427F
:1034900009D012D8DFF86C904D4504D009F5803979
:1034A0004D457FF475AF8A68C2B1012A0CBFC0F8E0
:1034B0001080C0F8148008226AE77545F3D065458E
:1034C000F1D0DFF84490EBE7002261E7CA685FE7DC
:1034D000CA6808325CE7CA680C3259E7042257E729
:1034E0000025A2E70125A0E702259EE70004014090
:1034F00000100240000801400000211000003110BF
:10350000000032100000111000002210034A0020B9
:10351000136943F080031361704700BF002002402D
:10352000064B1A69120641BF054A00205A6002F193
:1035300088324CBF5A600120704700BF0020024013
:103540002301674538B505460446601B14F8013B66
:1035500003B938BD184602F099FBF6E710B50446EA
:10356000C0B202F093FB204610BD034B1B7B012B26
:1035700001D002F047BC7047B01D002010B50E4BC3
:10358000D9789B88490289B201330B449BB2C3F3BB
:103590000A02520002F1006202F5F8321288D4B237
:1035A000844202D1C2F3072010BD013B9BB2994275
:1035B000EDD1FF2010BD00BF221400202DE9F04105
:1035C000184D06468846FFF7ABFF2B7E012B06D031
:1035D00001232B7605F046FA40B100232B76FFF746
:1035E00095FF0022104BDA70BDE8F08107460F4CC2
:1035F00006EB88284645F0D2EF61236943F00203C9
:1036000023616661236943F04003236105F02AFAD0
:10361000236923F0020323610028DED106F58066CA
:10362000E8E700BF382600202214002000200240D6
:1036300010B5084C04212046FFF7C0FFFFF770FFCC
:1036400020464FF6FF620023FEF792FFBDE81040D0
:103650005CE700BF00F00108094B10B5D3F8182251
:103660005C2303FB0023074A5A64EFF31184102301
:1036700083F31288FFF776F8E4B284F3118810BD63
:10368000341B002028140020064B93F8FC31032B38
:1036900005D1054B185C003018BF01207047002091
:1036A000704700BF341B0020221400201FB50022E9
:1036B0000C4648F205001146134B1B680093134B50
:1036C0001B680193124B1B6802931DF8013082EABC
:1036D00003620823002A03F1FF334FEA4202B8BF16
:1036E000424013F0FF03F5D101310929EDD193B226
:1036F0000849120C684603F0BCFA68462146FFF7F9
:1037000049F9054804B010BDE8F7FF1FECF7FF1FAB
:10371000F0F7FF1FEDCB00082012002030B5147821
:1037200028B1012000FA03F5085D2843085513B1BC
:10373000013BD8B230BD00230134E4B20B2C98BF5A
:10374000147007200B5530BD1FB5032203A90130AB
:1037500000F076FE24210B4B6A22597021211A7049
:103760009970DA70802303228DF80F300F23002127
:103770008DE80C0003A8062304F086FE05B05DF872
:1037800004FB00BF681400202DE9F0418AB004AFAB
:103790000B223946013000F053FEC0B209282CD16B
:1037A0001922284B5A701A709A703222DA7000234C
:1037B0001A46F918097A013B13F1090F82EA01024E
:1037C000F7D1002407230AAD8DF819208DF80F409A
:1037D00005F80C4D00264FF001080A2C10D14BB310
:1037E000013B5BB203200A219DF80F208DE8030006
:1037F000DBB20C21284604F047FE0AB0BDE8F08198
:1038000017F804E008FA06F0DBB20DF10F022946C2
:103810000EEA0000FFF782FF0136082E43B2DCD12A
:10382000C3B20DF10F0229460120FFF777FF0134E3
:1038300043B2CFE79DF80F3001338DF80F300723E7
:10384000D0E700BF6814002010B586B002A910228E
:10385000013000F0F5FD10489DF80B409DF80A304E
:1038600004709DF80C409DF8092044709DF80D40AF
:103870009DF8081084709DF80E40C470180903F07C
:103880000F03019000930DF10F0002F00F031209D6
:1038900004F0FAFD06B010BD681400202DE9F043D5
:1038A0008BB004AE0B223146013000F0C9FD162169
:1038B00035222E4BC4B259709970304621461A7089
:1038C000DA70FEF751F80AAB234401345FFA84F84A
:1038D000002403F8180C4FF0010907230AAF8DF8F4
:1038E0000F4007F80C4DE2B290450CD80A21032096
:1038F0009DF80F208DE80300DBB2384604F0C4FDCC
:103900000BB0BDE8F083002516F804E009FA05F0D5
:10391000DBB20DF10F0239460EEA0000FFF7FEFEA2
:103920000135042D43B2EFD1C3B20DF10F02394678
:103930000120FFF7F3FE43B216F804E009FA05F0A0
:10394000DBB20DF10F0239460EEA0000FFF7E6FE8A
:103950000135082D43B2EFD1C3B20DF10F02394644
:103960000120FFF7DBFE013443B2BCE768140020FE
:103970004378722B02D10C20FEF76BB8732B01D069
:103980000020F9E770472DE9F0471D4607460B4632
:1039900086B053BB06AE8DF80B3006F80C3D3C46A6
:1039A00007237A5401315FFA81F84FF00709A4EB3D
:1039B000070A5FFA8AFAD0451DD8002B3ED0013B9A
:1039C0005BB21921214ADBB2517011702521D170EF
:1039D00091700A219DF80B20019100950C21304631
:1039E00004F052FD06B0BDE8F087013BDBB2F85CA5
:1039F0000244D2B2CDE7012094F800E000FA09F0C9
:103A0000DBB231460DF10B020EEA0000FFF786FE35
:103A100019F1FF39014643B2CDD20020227842B9D4
:103A2000CBB20DF10B023146FFF778FE013443B201
:103A3000BBE702F0010358405208F0E79DF80B3055
:103A400001338DF80B300723BBE700BF681400205B
:103A50001FB50B2201A9013000F0F2FC0323C1B213
:103A6000062201A8FFF78FFF05B05DF804FB70B5D3
:103A700006460E4D01220021287803F01DFB0C4C58
:103A80007EB1A078000101F0ADFD0022287811463A
:103A900003F012FB3EB1E0780001BDE8704001F098
:103AA000A1BD2078EEE76078F6E700BFF2250020A0
:103AB0006814002070B50025104E114C307829464E
:103AC00004EB40039D8003F0ADF94FF4947130781E
:103AD0004A264143231893F82E2106FB0212144470
:103AE000A57193F82F214FF6FF7165F3410283F81A
:103AF0002F21BDE8704003F083B900BFF2250020FC
:103B0000681400202DE9F84FC34EC44D30783318A7
:103B10005B780D2B04D1022385F83031BDE8F88F96
:103B200028BB4FF08043596A2B1893F82E714FF43D
:103B300094734A22434302FB07373318DB79DFF8DB
:103B4000E8824FEA1119022B1FFA89FA08EB0704E1
:103B500020D118F80730042B13D1BAF12D0F40F201
:103B6000DA80BAF14E0F15D9BDE8F84FA2E7012867
:103B700001D1AB4BD7E7022801D1AA4BD3E70021F3
:103B8000D2E7052B06D1BAF1160F40F2C480BAF184
:103B9000270FE8E7022103F079FA00285BD1337898
:103BA0003344DB79022B0BD118F80730043B012B8F
:103BB00006D820460121FDF72AFF307803F00CF9E2
:103BC000337805EB4303A3F832A118F807300D2B27
:103BD00040F0A180B4F84800BAEB500F05D31FFAAB
:103BE00089F600EB40039E4204DD022308F807300B
:103BF000BDE8F88F238FA28F31189F18B1EB670FA4
:103C00005FFA89F120DDD2B202EB420253189B1019
:103C1000A387A6F10903984207DB06F1090398423E
:103C200003DCB5F83431013302E0B5F83431023346
:103C3000A5F83431B5F83431DA076CD501212046C6
:103C4000BDE8F84FFDF7E3BEDBB203EB43030B44E3
:103C50009B102387E5E7307805EB4002B2F832315C
:103C6000AAEB0303A2F8363103F0B6F833783344F5
:103C7000DB79022B18F8073004D11A1F012A01D86A
:103C80000021DCE70D2B10D13378B4F8480005EBA8
:103C90004303B3F83611B1EB500F03D300EB4003ED
:103CA000994215DD022308F8073018F807300B2B6E
:103CB00000F2D281DFE813F0F000D0018A00D001D9
:103CC000D001D001C201D001D001D001D0013F010B
:103CD000638FE28F0E189F18B6EB670FCEB21CDD14
:103CE000D2B202EB420293199B10E387A1F10903C0
:103CF000984207DB01F10903984203DCB5F834313F
:103D0000013302E0B5F834310233A5F83431B5F8A7
:103D10003431DB07B4D4BDE8F88FDBB203EB4303E7
:103D200033449B106387E9E7642AF4D86429F2D806
:103D30000123A3700223B9F1010F2287618708F8DC
:103D40000730E8D1A1F10903934203DC01F1090333
:103D50009A420EDD4B1F5B009A4202DD14339A42F9
:103D600007DB4908A1F109039A42D4DB09318A42F1
:103D7000D1DC0D2308F807305308112BA4F8483084
:103D800098BFA4F84820B4F8483001210C3B9BB2FE
:103D9000322B88BF0223A5F8341188BF08F80730FA
:103DA0004FF47A6103F02CF83078012103F03AF8EF
:103DB0003378012105EB4303B3F83621B3F83231F0
:103DC000E287A3872046FDF722FE5DE796F800B064
:103DD00004F1380005EB4B0393F832A193F83691C8
:103DE00051464A4604F0E4FBA378F8B194F83A202F
:103DF00094F8381002EB42024A4492106287002283
:103E000001EB4101514401338910A3702187A4F8CB
:103E10004820BDE8F88F00BFF2250020681400207C
:103E200000040040000800406E140020032B31D92C
:103E30004FF47A61584602F0E3FFA3780B2B08D9C0
:103E4000238F628F1344642B05DD042308F80730A9
:103E50000EE0092B1CD9238F628F1344242B17DC0F
:103E600005234FF47A7108F80730307802F0C8FF64
:103E70003078072205EB4005B5F83231E270A387B0
:103E8000B5F836310121E38700236370237153E1D4
:103E90000323DBE708F80700002307223078238795
:103EA0006387A387E387A4F84030A4F84230A5F8DD
:103EB0003431A4F8483084F83630637023713318F5
:103EC00093F80790E270B9F1010F4FEA400340F018
:103ED0000F816FF40B7CE918B1F83221624492B281
:103EE000C02A00F20581B1F836210A3A92B2162AA8
:103EF00000F2FE80092323870E2310226387E387C5
:103F00000623A28784F802904FF47A6108F80730FC
:103F100002F076FF4946307802F084FF337805EBF3
:103F20004305B5F83231A4F84430B5F83631A4F879
:103F30004630BDE8F88F30784300E918B1F83621F3
:103F4000B2F5AB7F3FF6E7AEB1F832E1A2F109017D
:103F5000714594F8361007DC02F1090CE64503DCE4
:103F600011B908F8071097E707291AD8EF18B7F81A
:103F700004C0F44538BFA7F804E0EF18B7F804E030
:103F8000964538BFBA8007290BD12B449988A1B137
:103F9000B4F846305B1A01EBA30189B2090102F0C3
:103FA0002FFF94F8363043B9337805EB4303B3F869
:103FB0003221B3F8363122876387327805EB42022B
:103FC000B2F836316F2B29D8B4F84610B1F58D7F91
:103FD00026D3B2F832210B329A420EDB0021204662
:103FE000FDF715FD337805EB4305B5F83231A387AE
:103FF000B5F83631E387BDE8F88F01212046FDF79B
:1040000006FD337805EB4305B5F83231A4F84030AE
:10401000B5F83631A4F84230BDE8F88F9B2B0BD8A9
:10402000B4F84620B2F59C7F01D90021E6E75C2B6D
:1040300002D8B2F59C7FF8D10121D0E733781E4435
:10404000F17901297FF467AE05EB4305B5F832310C
:104050000A2B3FF6F4AD13E6337804F13C0005EB90
:10406000430393F8328193F8369141464A4604F06F
:104070009FFA0746C0B101212046FDF7C8FC3278FF
:1040800094F83C3005EB420595F8322103EB4303ED
:1040900013449B10A38794F83E3095F8362103EB28
:1040A000430313449B10A5E74A46414604F13800F8
:1040B00004F07EFA00283FF457AD39462046FDF75C
:1040C000A6FC327894F8383005EB420595F8322199
:1040D00003EB430313449B10238794F83A3095F87D
:1040E000362103EB430313449B106387BDE8F88F2D
:1040F0002B44B3F83221B3F83611B9F1010FA4F80B
:104100004420A4F846107FF40FAEA2F10A03292B35
:104110003FF60AAE40F2A12EA1F1C9039BB273454E
:104120000ED80B23103908F80730090184F80290E3
:1041300002F066FE49463078BDE8F84F02F072BEE4
:1041400064293FF6E8AD02232287618784F8029054
:1041500008F80730F6E570B52C4C0021207802F005
:1041600061FE207840BB4FF08043DD6A44F6206159
:1041700002F046FE23784BBB4FF080425562234449
:104180005B791A0702D52E2000F0A8FF4FF4947532
:1041900020781F4905FB00F64A250A1892F82E31AF
:1041A00005FB036529448D79022D02D9C9790129BE
:1041B00014D8BDE870407DE4012801D1154BD4E747
:1041C000022801D1144BD0E70025CFE7012B01D104
:1041D000104AD3E7022BD2D10F4ACFE792F8381119
:1041E000032907D1044463795B07E2D50B4801F04A
:1041F00023F8DEE70133DBB2042B08BF00230131D3
:1042000082F8381182F82E3170BD00BFF2250020EF
:10421000681400200004004000080040F6CB0008AD
:1042200038B504F021F904F093F82B4C88B92368D1
:104230002A4D44202B6000F051FF3A2000F04EFF41
:1042400028882022022101F05CF9BDE8384000F006
:1042500090BF234D522000F041FF3A2000F03EFF76
:10426000236805EBC303D87900F035FF236805EB1D
:10427000C303987900F02FFF236805EBC303587937
:1042800000F029FF236805EBC303187900F023FF32
:10429000236805EBC303D87800F01DFF236805EB06
:1042A000C303987800F017FF236805EBC303587821
:1042B00000F011FF236815F8330000F00CFF2368AD
:1042C0000133236000F055FF04F042F80028AED01F
:1042D0002368092BBEDDAAE7EC250020BC250020C1
:1042E0006C25002007B5F021E12003F047FE0DF119
:1042F000070004F0A3F99DF80700C307F7D403B043
:104300005DF804FB07B5FFF7EDFF962003F06AFEAA
:10431000FFF7E8FFE121084603F030FE0DF107004A
:1043200004F08CF99DF8070003B05DF804FB10B5AC
:104330000446FFF7D7FF2146A52003F01FFEBDE886
:104340001040CFE710B50446FFF7CCFF002C0CBFA0
:1043500021468021872003F011FEBDE81040C1E70F
:1043600008B50120FFF7EEFFFFF7BCFFC0F34010D8
:1043700008BD002208B5064BB4201A6003F032FED7
:10438000FFF7B0FF430754BFC0F34000022008BD51
:10439000D8250020782208B5114B12491A60002355
:1043A0000B6011490B6011490B6011490B601149F9
:1043B0000B60114B1A6004F057F8302002F0F6FC45
:1043C00018B1BDE8084002F0E1BC02F0DFFCFFF7E5
:1043D000D0FF012802D1BDE8084021E708BD00BF99
:1043E000D0250020D4250020C0250020C425002091
:1043F000D8250020C8250020CC250020002210F858
:10440000013B0BB90A707047303BDBB2092B9EBFF2
:1044100002EB820203EB420303F0FF02EFE700220C
:1044200010B510F8013B0BB90A8010BD303BDCB26F
:10443000092C9EBF02EB820203EB42039AB2F0E723
:10444000F0B50E4600252C4610E0A3F14107052FDC
:1044500003D8373B2343DBB217E0202B06D03A2B9F
:1044600004D0701AF0BD01251B01DCB210F8013B2D
:10447000002BF6D0602B84BF203BDBB2A3F13007CA
:10448000FFB2092FE1D847EA0403002DEBD0013A2F
:1044900012F0FF0206F10104337001D1601AF0BD81
:1044A0002646CFE72DE9F04F457889B0732D0446B5
:1044B00040F03181002608AD05F8116D0122294632
:1044C0000230FFF7BDFF9DF80F3001222946201D65
:1044D0008DF81030FFF7B4FF9DF80F20294602F049
:1044E000F007A01D01228DF81170FFF7A9FF9DF8BC
:1044F0000F300122294604F108008DF81230FFF731
:104500009FFF9DF80F300122294604F10A008DF823
:104510001330FFF795FF9DF80F300122294604F173
:104520000C008DF81630FFF78BFF9DF80F3001223D
:10453000294604F10E008DF81530FFF781FF9DF834
:104540000F3032468DF81430334604AE995D013396
:1045500081EA1111072B82EA0102F7D1334602F0FA
:104560000F023A438DF8112096E80300ADF81C10B5
:10457000090C06908DF81E100DF116005A78197866
:104580004A4003F8012F9842F8D10222814B0A20B9
:104590001A61FDF7B1FC362004F05EFB7E4C3A2038
:1045A00004F05AFB3B2004F057FB04F085FB01228A
:1045B0000021207802F080FD42F2C74001F012F89D
:1045C00000222078114602F077FDDFF8D0B15920A3
:1045D00001F096F840F2352001F004F84FF0000A9F
:1045E0005F469BF802204FFA8AF3934223DBFDF7E4
:1045F00073FC38B923781C446379002B00F0878062
:1046000004F040FB4FF40032624B00241A6102F0C8
:104610001DF8592000F062FD732000F05FFD06AD2B
:10462000285D013400F057FD072CF9D100F0A1FD01
:1046300009B0BDE8F08F002B14BF4FF007084FF012
:104640000208002501220021207802F035FD40F605
:10465000F61000F0C7FF00222078114602F02CFD72
:10466000013540F6F61000F0BDFF6BB29845E9DC6D
:1046700001220021207802F01FFD41F2FC2000F011
:10468000B1FF00222078114602F016FD388800F0B4
:10469000A9FF4FF0000808254FF0800916F80830F0
:1046A0000093009B13EA090327D1012219462078C1
:1046B000019302F001FD388800F094FF019B1A4637
:1046C0000021207802F0F8FC013D388800F08AFFD4
:1046D00015F0FF054FEA5909E3D108F10108B8F1D7
:1046E000070FD8D12A462946207802F0E5FC284653
:1046F00000F078FF0AF1010A73E7002220781146E2
:1047000002F0DAFC388800F06DFF0122D8E736208D
:1047100004F0A2FA76E7722D15D1204E0230B11CBA
:10472000FFF77DFE01F092FF592000F0D7FC2846EC
:1047300000F0D4FC3A2000F0D1FC20220021B07817
:1047400000F0DFFE72E7742D1DD18378134D302BFE
:1047500014D14FF49B63AB80AB885B082B8001F0D6
:1047600075FF592000F0BAFC742000F0B7FC3A2025
:1047700000F0B4FC20220621A888E1E7291D0230C0
:10478000FFF74DFEE8E7782D7FF452AF0020FDF7EC
:1047900060F94DE7000C0140F22500205A0100208D
:1047A00072B6838813B962B618467047013B83809E
:1047B00043885A1C92B2B2F5007F428008BF0022A3
:1047C00003449B7908BF4280EDE72DE9F843264C6E
:1047D000264F274E94F800802070BB881BB984F8C0
:1047E0000080BDE8F8833846FFF7DAFF0A2801D0D9
:1047F0000D281BD16278002AEFD000231D492244E6
:1048000093700B70A178DAB216F83250A5B18D42D0
:1048100003F10103F7D106EBC2025368164898472B
:1048200000236370D9E700F0A4FCF9E763785A1C11
:10483000234462709870D0E7104800F0FDFC0E48E9
:1048400000F056FE0E4800F0F7FCEBB216F833907D
:104850000135B9F1000FE6D0202000F03FFC4846BA
:1048600000F03CFCF1E700BFA4150020861E0020EC
:10487000F8C40008F2250020A6150020FDCB000892
:1048800001CC000810B50020FEF7FEFEB8B90C49B7
:10489000B1F808329BB101F50170FFF781FF81F893
:1048A0000A04EFF31184102383F31288012201F22A
:1048B0000A41044803F064F9E4B284F3118810BD9E
:1048C000A41500208C20002072B68388B3F5007FE9
:1048D00001D362B67047028801338380531C9BB2B8
:1048E000B3F5007F038008BF00230244917108BF25
:1048F0000380EEE710B541F60F530446221A9142A9
:1049000001DC184610BD14F8012B82EA132282EA5A
:10491000121242EA032383EA023383EA42139BB270
:10492000ECE708B504F0AEF9034B00211878BDE8B8
:10493000084003F0E3B900BFF225002002222DE970
:10494000F843694B694E1A61694C337880462344B9
:1049500093F80B340D46392B06D11421122004F0A4
:10496000E9F969001331C9B2062004F0E3F904F053
:10497000A3F900220121307802F09EFB7F2004F091
:10498000D7F93378234493F80B34392B0CD0013DFD
:1049900008F1FF374544AF4220D017F8010FC0435C
:1049A000C0B204F0C5F9F6E70F276620013F04F016
:1049B000BFF917F0FF07F8D1AA2004F0B9F9552084
:1049C00004F0B6F9013D08F1FF394544A94553D13A
:1049D000002004F0ADF9002004F0AAF9012230789B
:1049E000114602F069FB352004F0BEF91328FAD015
:1049F000FF21062004F09EF93378234493F80B340A
:104A0000392B03D11E21122004F094F9FFF789FFFE
:104A10004FF40032344B1A6198F805305B0629D503
:104A2000344B32781B6804EB820106332244C1F810
:104A3000103492F818340133DBB2012B82F81834A9
:104A40000FD901F003FE7A2000F048FB722000F03D
:104A500045FB3378234493F8180400F03CFB00F046
:104A600088FB33781C4494F81834022B84BF00234D
:104A700084F81834BDE8F88319F8017F17F0800F27
:104A800014BF8020402017F0400F14BF20231023B4
:104A900017F0200F184414BF0823042317F0100F39
:104AA000184414BF022301231844C0B204F040F993
:104AB00017F0080F14BF8020402017F0040F14BF18
:104AC0002023102317F0020F184414BF08230423D7
:104AD00017F0010F184414BF022301231844C0B279
:104AE00004F026F972E700BF000C0140F225002017
:104AF000A4150020602500202DE9F0414378444CA6
:104B0000722B01D06D2B10D182782178002A08BF3A
:104B10003422404B0B4483F80B2442780E2083F858
:104B20001A24BDE8F041FCF794BF732B1AD1A826D4
:104B30000023384D217805F21C4705EB0108324669
:104B400006FB0171023088F81834FFF779FC88F809
:104B50006C052078054495F86C1506FB0070BDE8DF
:104B6000F041EBE6692B4CD183784BB121782A4B8D
:104B700001EB81010522BDE8F041194402305FE4F8
:104B8000244D01F063FD23782B4493F81A0400F0C0
:104B9000A5FA23782B4493F80B0400F09FFA202009
:104BA00000F09CFA237803EB83032B4493F86E0503
:104BB00000F091FA237803EB83032B4493F86F05FD
:104BC00000F089FA237803EB83032B4493F87005F4
:104BD00000F081FA237803EB83032B4493F87105EB
:104BE00000F079FA202000F079FA237803EB8303B0
:104BF0001D4495F8720500F06EFABDE8F04100F032
:104C0000B8BA00202278034B134483F81A0488E7CB
:104C1000F2250020A4150020121B002038B52B4CD3
:104C20000121207803F06FF801222078114602F06C
:104C300043FA1E2000F0D6FC00220121207802F069
:104C40003BFA1E2000F0CEFC01222078114602F033
:104C500033FA2D2000F0C6FC302003F0FDFF642065
:104C600000F0C0FC22781A4B134493F80B34392B14
:104C700012D10024174D2B19285D5978023404F005
:104C800059F8322CF7D1332003F0E6FF042000F06E
:104C900037FDBDE8384044E6342B0AD100240E4DE0
:104CA0002B19285D5978023404F044F8322CF7D1DE
:104CB000E9E7312BE7D10024084D2B19285D5978FD
:104CC000023404F037F8322CF7D1DCE7F22500206B
:104CD000A4150020F0C5000822C6000854C600082C
:104CE000002307B58DF8073028B101220DF1070127
:104CF0001044FFF7A5FB9DF80710FF2900D1FEE740
:104D00004FF400720D4B1A610D4AD36943F0C05342
:104D1000D3610C4B1A6842F480721A600A4A49B196
:104D200044F24C2191621A6822F480721A6003F0F6
:104D3000EDFCFEE744F24D21F4E700BF000C01401A
:104D40000010024000700040006C0040FE2802D8B5
:104D5000C0B2FEF713BCFF207047002307B502A9BD
:104D600001F8043D02228DF80530FFF769FBC0B25F
:104D7000022808BF9DF805309DF804000CBF43EAE7
:104D8000002080B2FFF7E2FF03B05DF804FBFE28CD
:104D90002DE9F74F0D467CD8C4B22046FEF7EEFB56
:104DA000854276D04FF0000864F3070865F30F28BA
:104DB0003D4D3E4F2C883878013404EB4024C4F339
:104DC0000A04FEF7ADFB600000F100601FFA88F2F4
:104DD000002300F5F830FDF7CBFBFEF797FB40F220
:104DE000FE522B88B94601339BB293422B80AA46D0
:104DF0004FD94FF6FF733C78033404F003044FEAB5
:104E0000842808F1006808F5F8352A884FEA442B11
:104E10009A4204D003B0BDE8F04FFEF709BC00276A
:104E2000FEF77EFB28464FF6FF620023FDF7A0FB4E
:104E30003D460BF1010BFBB218460193FEF79EFBBA
:104E4000FF2860F30F2612D0019B05EB0B004000FA
:104E500063F30706691C00F1006089B2B2B2002357
:104E600000F5F8300191FDF783FB01990D460137FC
:104E7000FF2FE0D1E6B27CB9C6F10301C9B208F553
:104E8000FA30FEF79BFBFEF741FB89F80060AAF8B9
:104E9000005003B0BDE8F08F31460548FEF78EFBA9
:104EA000032CF0D0E8E700BF2614002025140020D2
:104EB00000F00108012210B5094C10442146FFF70B
:104EC000BFFA2178074B11F0010F18BF0222BDE88D
:104ED000104008BF4FF4003234201A6157E700BF7A
:104EE00060010020000C014030B50D4B03F1AE0114
:104EF0001A781AB978B10023184630BD8B42F9D21E
:104F000038B15D780478A54203D19D784478A542F4
:104F1000F2D01344ECE7034A934228BF1346EBE771
:104F2000BA0C0020680D00200023054A1370054AC2
:104F300013700322044B1A70FF22044B1A7070473F
:104F4000B70C0020B80C00200126002068250020A6
:104F500008B53520FFF7FAFE0B4B18703620FFF727
:104F6000F5FEFF22094B1870094B1A709A701A71DE
:104F70009A711A729A721A739A73FFF7D5FF002208
:104F8000044B1A7008BD00BFB50C0020B60C002001
:104F90001C1B0020BA0C002038B50E48FFF7DDFEC0
:104FA00004460D48FFF7D9FE05460C48FFF7D5FE2D
:104FB00000EB04441A2004EB05246043084B000C6A
:104FC0001A78B0F5FA7F13448CBF02220122DA71FD
:104FD00038BD00BF19CC00081CCC00081FCC00084D
:104FE000F2250020F8B5012106460020FFF7CFFE8C
:104FF00001201A21FFF7CBFE0220194D441C2B196A
:1050000013F8031CFFF7C3FE2B2C2046F6D13724E0
:10501000144F651CEB19204613F8381CFFF7B7FE38
:10502000602D2C46F5D1082003F062FEFFF7B4FF97
:1050300000212846FFF7ABFE00216120FFF7A7FE05
:1050400000213320FFF7A3FE02213420FFF79FFE4B
:105050007378782B02D00020FFF742FEF8BD00BF26
:1050600086C60008AFC6000873B503220546694628
:105070000130FFF7E5F9C6B2012E1AD9022E9DF8CC
:10508000004016BF9DF80130A4B243EA042402ABED
:10509000334413F8091C2046FFF779FEA4F10F03EF
:1050A000022B01D8FFF778FF05EB460501352B7879
:1050B0000BB902B070BD012269462846FFF7C0F95E
:1050C0000028F6D00134A4B29DF800102046FFF766
:1050D0005EFE0235EBE7022100F030BE38B5044633
:1050E0000020FEF7D1FA174DA8B12B78DA0727D5A3
:1050F000154B9B88B3F5007F01D303F079FD214662
:105100001148FFF7E1FB0A2C01D103F071FD0020EB
:10511000FEF7BAFAA0B92B78DB0711D50A4B9B88AA
:10512000B3F5FF7F06D3B3F5007F09D20D2C01D074
:105130000A2C05D12146BDE838400348FFF7C4BB1F
:1051400038BD00BFA4150020A8170020013938B5CC
:10515000CCB2FF2C00D138BD451CFFF7F7FDFFF79F
:10516000BAFF14B13A20FFF7B9FF013CE4B2284678
:10517000EFE708B50D20FFF7B1FFBDE808400A20B2
:10518000ACE738B504465420FFF7A8FF651E043489
:1051900015F8010FFFF79FFFA542F9D1054B1A78CB
:1051A00013445B799B0602D5FA20FFF794FFBDE814
:1051B0003840DEE7F225002070B53F20ADF5007DD8
:1051C00003F0D2FD194C002201210646207801F09F
:1051D00073FFFF2003F0ACFD0025EBB29E4217D811
:1051E00001222078114601F067FF0123104C0025B1
:1051F000237001F02BFAEBB29E4210D8FFF7B9FFF3
:10520000FF23012223700B4B1A700DF5007D70BD3A
:10521000002002F07DFD0DF805000135DDE71DF8E9
:105220000500FFF75BFF0135E5E700BFF225002031
:10523000A41500209815002010B5441E14F8010F85
:1052400000B910BDFFF74AFFF8E708B501F0FEF915
:105250000948FFF7F1FF0948FFF7EEFF084B1A78FE
:105260001344DB79012B0CBF06480748FFF7E4FF26
:10527000BDE808407DE700BF22CC000881CA0008D5
:10528000F22500205CCC00086ECC00082DE9F04728
:10529000451C86B08046052201A92846FFF7D0F8B4
:1052A000C6B2032E9DF8043000F29B80012B01D181
:1052B000032E01D001F0CAF99DF80430012B19D159
:1052C000032E0ED19DF805103520FFF760FD9DF8E7
:1052D00006103620FFF75BFDFFF73AFE06B0BDE88B
:1052E000F087794B1878FFF7F6FE784B1878FFF7C0
:1052F000F2FE16E0022B3BD1012E04D09DF80540B2
:10530000611E4E424E41724B1A78984612B971484E
:10531000FFF792FF6E4C04F1AE0923780BB14C45B8
:1053200002D3FFF726FFD9E7444502D02020FFF73C
:10533000D5FE6078FFF7CFFEA078FFF7CCFE16B958
:1053400023781C44E9E73A20FFF7C8FE03252378B9
:10535000AB42F5D9032D04D9EA0702D52C20FFF77B
:10536000BDFE6F1C605DFFB2FFF7B5FE3D46EEE788
:10537000032B06D10020FFF7B7FD574B181AC0B218
:10538000B5E7102B25D10024544F2546B84617F811
:1053900014306600FF2B13D015B12020FFF79EFEBE
:1053A000E0B2FFF798FE3A20FFF798FE18F80600E3
:1053B0004644FFF790FE7078FFF78DFE0135EDB2A1
:1053C0000134082CE3D1002DABD14248FFF734FF64
:1053D000A7E7112BA5D1424B18887D23B0FBF3F032
:1053E000CDE7394A1478A3422FD3E21D9A422CDB31
:1053F000364A9DF805101278914226D19DF8070093
:105400002F280CD103A90B222846FFF719F80C22EC
:10541000C1B202230DEB0200FEF7B5FA5EE72C28BD
:105420002E4A9DF8081009D1117401222C4B1A80C4
:105430002C4A138803EB810111804FE71B1B5B0093
:10544000DBB2D0541344597048E70020FFF74CFDFD
:105450000746284606F0E2FE44080134E4B21C4A3E
:105460003B199B1AAE2B28DC3D464FF00109DFF8B3
:105470007CA005F8014B5FFA89F670000138B44250
:10548000C0B206D8144B9F42BFF428AF0023BB55CF
:1054900024E7012229464044FEF7D2FF022E08D914
:1054A000F30706D415F8013C642B04BF2B788AF867
:1054B0000030013509F10109DDE701F0C7F80A48BC
:1054C000FFF7BAFE0AE700BFB50C0020B60C0020BB
:1054D000BA0C002080CC0008680D00201C1B0020A6
:1054E00066250020F025002084CC0008B90C00209F
:1054F00010B5441E14F8010F00B910BDFFF7EEFD02
:10550000F8E7F7B500254FF00A0E8DF80550013980
:10551000B0FBFEF70EFB1700ECB230300DEB0506CA
:10552000231D30710C44B8B2DBB264B218B1013D36
:105530006B1DEDD10023013C64B2002C00DB2BB9C4
:105540000DEB0300FFF7D4FF03B0F0BD013BDBB26E
:1055500002A9194401F8082CEDE737B543784D2B23
:1055600007D10621F920FFF7F1FDFFF702FE03B096
:1055700030BD502B02D11021D920F4E7002302A91D
:1055800001F8043D022201308DF80530FEF758FF86
:10559000C0B2022808BF9DF805309DF804400CBF3A
:1055A00043EA0424A4B22046FFF7D0FB054652206C
:1055B000FFF794FD0421204600F0C0FB0748FFF7E9
:1055C0003BFE2846FFF787FD0548FFF735FE202202
:1055D0000221A8B2FFF795FFC7E700BF8ACC0008F9
:1055E0008ECC00080A4B0B4A1B684000B3FBF2F359
:1055F00080B2584382B04008074B01905A6800922D
:105600005A6800980199121A8A42F9D302B0704779
:105610006401002040420F00001000E0012838B56E
:105620000546364C22D102460021207801F044FD87
:1056300040F21310FFF7D6FF00222078114601F048
:105640003BFD40F29C40FFF7CDFF01220021207876
:1056500001F032FD40F21310FFF7C4FF0022207862
:10566000114601F029FD40F2131022E0012218BB7F
:105670000146207801F020FD40F21310FFF7B2FF41
:1056800020782A46294601F017FD40F21310FFF753
:10569000A9FF01220021207801F00EFD40F2131035
:1056A000FFF7A0FF00222078114601F005FD40F22F
:1056B0009C40BDE8384095E7022D4FF0000120786E
:1056C0000DD101F0F9FC40F21310FFF78BFF00221F
:1056D0002078114601F0F0FC40F29C40D7E701F041
:1056E000EBFC40F21310FFF77DFF002220781146FB
:1056F00001F0E2FC40F21310A5E700BFF225002004
:1057000010B5044604B910BD4FF47A70013CFFF7A0
:1057100069FFE4B2F6E710B50E4C362003F09CFAB0
:10572000A378532B0CBF9B204B20FFF7E9FF0123ED
:105730000C2205212046FEF726F903F0A3FA064BBA
:105740001A7813445B795B0603D52046BDE8104008
:1057500017E510BDFB250020F225002008B5FFF756
:10576000DAFF054B9B78692B05D00122034B1A7099
:105770002922034B1A7008BDFB250020B40C002021
:1057800068250020F8B5054606F048FD6B78722BB9
:1057900004D10D20BDE8F840FCF75BB9732B2CD188
:1057A000174E00220121C7B2307801F085FC7F201E
:1057B00003F0BEFAB81EC0B203F0BAFA02240135F3
:1057C000BC420FD301223078114601F075FC03F082
:1057D00073FA3A2003F0C8FA43060AD1BDE8F8404C
:1057E00003F050BA15F8010F013403F0A1FAE4B246
:1057F000E6E70120FFF784FFEBE70020CAE700BFE0
:10580000F2250020154B10B5DA68C2F30222C2F16E
:105810000704131D042C28BF0424062B4FF001039A
:1058200098BF002203FA04F303F1FF3388BF033A61
:105830001940002801FA02F14FEA0111AFBF00F14F
:105840006040074B00F00F00C9B2A5BFC9B200F518
:105850006140195480F8001310BD00BF00ED00E056
:1058600014ED00E04FF47A7208B50C4B1B68B3FBE3
:10587000F2F3013BB3F1807F09D2F021084A536073
:10588000084B83F823100023936007231360002143
:105890004FF0FF30FFF7B6FF002008BD6401002085
:1058A00010E000E000ED00E0B34BF7B55A6802F0FD
:1058B0000C02042A07D05A6802F00C02082A2BD1E5
:1058C0005A68D20328D54FF4003292FAA2F119682F
:1058D00092FAA2F20268950764D55A6812F00C0F8A
:1058E00007D05A6802F00C02082A31D15A68D40352
:1058F0002ED4022292FAA2F1196892FAA2F2B2FA16
:1059000082F202F01F0221FA02F2D1073ED50269AB
:10591000012A3BD0012019E04FF400351A6897495D
:1059200042F480321A600E6895FAA5F21C6895FA66
:10593000A5F2B2FA82F202F01F0224FA02F2D707AD
:10594000C8D40A68921B642AEED9032003B0F0BDC4
:1059500001698A4C012200296AD092FAA2F1B1FAB7
:1059600081F10225890001F1844101F584010A6079
:10597000266895FAA5F2196895FAA5F2B2FA82F2AC
:1059800002F01F0221FA02F2D2074CD51C68F8225D
:1059900092FAA2F2B2FA82F142698A4024F0F80146
:1059A0000A431A600268110760D40268520734D5AE
:1059B000DA69734942F08052DA61DA6902F08052A2
:1059C0000192019A0A6842F480720A606B4A156873
:1059D0000C68E60540F18D80C168012940F08F8098
:1059E000196A41F00101022541F288362F461962F9
:1059F000D2F800E095FAA5F195FAA5F1002900F09A
:105A0000B7801C6A97FAA7F1B1FA81F101F01F0182
:105A100024FA01F1CC0740F1A480C169002940F0CB
:105A2000B380002092E72268921B022AA1D98CE75A
:105A300092FAA2F2B2FA82F20225920002F18442B4
:105A400002F584021160266895FAA5F2196895FAA4
:105A5000A5F2B2FA82F202F01F0221FA02F2D7078F
:105A6000A0D52268921B022AEED96EE784694349C9
:105A70000122444D04B392FAA2F4B4FA84F445F836
:105A8000242002250E6895FAA5F295FAA5F25C6A23
:105A900095FAA5F2B2FA82F202F01F0224FA02F29B
:105AA00012F0010F0A6803D00C689442FCD07CE726
:105AB000921B022AE7D948E792FAA2F2B2FA82F2DE
:105AC00045F8224002250E6895FAA5F295FAA5F24E
:105AD0005C6A95FAA5F2B2FA82F202F01F0224FA89
